{
  "contractName": "Wastemanagement",
  "abi": [
    {
      "inputs": [],
      "payable": false,
      "stateMutability": "nonpayable",
      "type": "constructor"
    },
    {
      "anonymous": false,
      "inputs": [
        {
          "indexed": true,
          "internalType": "uint256",
          "name": "wasteBagId",
          "type": "uint256"
        }
      ],
      "name": "NewWasteBag",
      "type": "event"
    },
    {
      "anonymous": false,
      "inputs": [
        {
          "indexed": true,
          "internalType": "uint256",
          "name": "lastAuthorized",
          "type": "uint256"
        }
      ],
      "name": "newAuthorization",
      "type": "event"
    },
    {
      "constant": true,
      "inputs": [
        {
          "internalType": "address",
          "name": "",
          "type": "address"
        }
      ],
      "name": "account",
      "outputs": [
        {
          "internalType": "uint256",
          "name": "auth",
          "type": "uint256"
        },
        {
          "internalType": "int256",
          "name": "balance",
          "type": "int256"
        }
      ],
      "payable": false,
      "stateMutability": "view",
      "type": "function"
    },
    {
      "constant": true,
      "inputs": [],
      "name": "lastAuthorized",
      "outputs": [
        {
          "internalType": "uint256",
          "name": "",
          "type": "uint256"
        }
      ],
      "payable": false,
      "stateMutability": "view",
      "type": "function"
    },
    {
      "constant": true,
      "inputs": [],
      "name": "wasteBagId",
      "outputs": [
        {
          "internalType": "uint256",
          "name": "",
          "type": "uint256"
        }
      ],
      "payable": false,
      "stateMutability": "view",
      "type": "function"
    },
    {
      "constant": true,
      "inputs": [
        {
          "internalType": "uint256",
          "name": "",
          "type": "uint256"
        }
      ],
      "name": "wastebags",
      "outputs": [
        {
          "internalType": "address",
          "name": "useradd",
          "type": "address"
        },
        {
          "internalType": "uint256",
          "name": "weight",
          "type": "uint256"
        },
        {
          "internalType": "string",
          "name": "recyType",
          "type": "string"
        },
        {
          "internalType": "string",
          "name": "timestamp",
          "type": "string"
        },
        {
          "internalType": "bool",
          "name": "status",
          "type": "bool"
        },
        {
          "internalType": "bool",
          "name": "verified",
          "type": "bool"
        },
        {
          "internalType": "string",
          "name": "location",
          "type": "string"
        }
      ],
      "payable": false,
      "stateMutability": "view",
      "type": "function"
    },
    {
      "constant": true,
      "inputs": [
        {
          "internalType": "address",
          "name": "add",
          "type": "address"
        }
      ],
      "name": "getBalance",
      "outputs": [
        {
          "internalType": "int256",
          "name": "",
          "type": "int256"
        }
      ],
      "payable": false,
      "stateMutability": "view",
      "type": "function"
    },
    {
      "constant": false,
      "inputs": [
        {
          "internalType": "address",
          "name": "add",
          "type": "address"
        },
        {
          "internalType": "int256",
          "name": "val",
          "type": "int256"
        }
      ],
      "name": "depositBalance",
      "outputs": [],
      "payable": false,
      "stateMutability": "nonpayable",
      "type": "function"
    },
    {
      "constant": false,
      "inputs": [
        {
          "internalType": "address",
          "name": "add",
          "type": "address"
        }
      ],
      "name": "addNewUser",
      "outputs": [],
      "payable": false,
      "stateMutability": "nonpayable",
      "type": "function"
    },
    {
      "constant": false,
      "inputs": [
        {
          "internalType": "uint256",
          "name": "weight",
          "type": "uint256"
        },
        {
          "internalType": "string",
          "name": "recyType",
          "type": "string"
        },
        {
          "internalType": "string",
          "name": "timestamp",
          "type": "string"
        },
        {
          "internalType": "string",
          "name": "location",
          "type": "string"
        }
      ],
      "name": "addNewWasteBag",
      "outputs": [],
      "payable": false,
      "stateMutability": "nonpayable",
      "type": "function"
    },
    {
      "constant": false,
      "inputs": [
        {
          "internalType": "bool",
          "name": "newStatus",
          "type": "bool"
        },
        {
          "internalType": "int256",
          "name": "amount",
          "type": "int256"
        }
      ],
      "name": "authorizeRequest",
      "outputs": [],
      "payable": false,
      "stateMutability": "nonpayable",
      "type": "function"
    }
  ],
  "bytecode": "0x60806040523480156200001157600080fd5b5062000023336200019160201b60201c565b620000d760026040518060400160405280600781526020017f706c6173746963000000000000000000000000000000000000000000000000008152506040518060400160405280600981526020017f32302d322d3230323000000000000000000000000000000000000000000000008152506040518060400160405280601981526020017f526561636865642072656379636c696e672073746174696f6e000000000000008152506200020f60201b60201c565b6200018b60036040518060400160405280600581526020017f6d6574616c0000000000000000000000000000000000000000000000000000008152506040518060400160405280600981526020017f32302d322d3230323000000000000000000000000000000000000000000000008152506040518060400160405280600881526020017f52656379636c65640000000000000000000000000000000000000000000000008152506200020f60201b60201c565b620004d5565b6200019b620003b5565b6040518060400160405280600181526020016064815250905080600160008473ffffffffffffffffffffffffffffffffffffffff1673ffffffffffffffffffffffffffffffffffffffff16815260200190815260200160002060008201518160000155602082015181600101559050505050565b62000219620003cf565b6040518060e001604052803373ffffffffffffffffffffffffffffffffffffffff1681526020018681526020018581526020018481526020016000151581526020016000151581526020018381525090508060036000600254815260200190815260200160002060008201518160000160006101000a81548173ffffffffffffffffffffffffffffffffffffffff021916908373ffffffffffffffffffffffffffffffffffffffff160217905550602082015181600101556040820151816002019080519060200190620002ef92919062000426565b5060608201518160030190805190602001906200030e92919062000426565b5060808201518160040160006101000a81548160ff02191690831515021790555060a08201518160040160016101000a81548160ff02191690831515021790555060c08201518160050190805190602001906200036d92919062000426565b5090505060026000815480929190600101919050557fcc483101fbb59597c0bfc36f19482be6ce5fb9c33ac775edf3d28bb5d09919a960405160405180910390a25050505050565b604051806040016040528060008152602001600081525090565b6040518060e00160405280600073ffffffffffffffffffffffffffffffffffffffff168152602001600081526020016060815260200160608152602001600015158152602001600015158152602001606081525090565b828054600181600116156101000203166002900490600052602060002090601f016020900481019282601f106200046957805160ff19168380011785556200049a565b828001600101855582156200049a579182015b82811115620004995782518255916020019190600101906200047c565b5b509050620004a99190620004ad565b5090565b620004d291905b80821115620004ce576000816000905550600101620004b4565b5090565b90565b610f1f80620004e56000396000f3fe608060405234801561001057600080fd5b50600436106100935760003560e01c8063c1d5e84f11610066578063c1d5e84f14610372578063cd005a3f146103b6578063d0cc6bbe14610585578063f0c82139146105a3578063f8b2cb4f146105c157610093565b80631837b91314610098578063638cd3ba146100e657806373b9aa91146102d9578063bd2d3e8d14610338575b600080fd5b6100e4600480360360408110156100ae57600080fd5b81019080803573ffffffffffffffffffffffffffffffffffffffff16906020019092919080359060200190929190505050610619565b005b6102d7600480360360808110156100fc57600080fd5b81019080803590602001909291908035906020019064010000000081111561012357600080fd5b82018360208201111561013557600080fd5b8035906020019184600183028401116401000000008311171561015757600080fd5b91908080601f016020809104026020016040519081016040528093929190818152602001838380828437600081840152601f19601f820116905080830192505050505050509192919290803590602001906401000000008111156101ba57600080fd5b8201836020820111156101cc57600080fd5b803590602001918460018302840111640100000000831117156101ee57600080fd5b91908080601f016020809104026020016040519081016040528093929190818152602001838380828437600081840152601f19601f8201169050808301925050505050505091929192908035906020019064010000000081111561025157600080fd5b82018360208201111561026357600080fd5b8035906020019184600183028401116401000000008311171561028557600080fd5b91908080601f016020809104026020016040519081016040528093929190818152602001838380828437600081840152601f19601f8201169050808301925050505050505091929192905050506106a8565b005b61031b600480360360208110156102ef57600080fd5b81019080803573ffffffffffffffffffffffffffffffffffffffff169060200190929190505050610846565b604051808381526020018281526020019250505060405180910390f35b6103706004803603604081101561034e57600080fd5b810190808035151590602001909291908035906020019092919050505061086a565b005b6103b46004803603602081101561038857600080fd5b81019080803573ffffffffffffffffffffffffffffffffffffffff169060200190929190505050610a05565b005b6103e2600480360360208110156103cc57600080fd5b8101908080359060200190929190505050610b38565b604051808873ffffffffffffffffffffffffffffffffffffffff1673ffffffffffffffffffffffffffffffffffffffff1681526020018781526020018060200180602001861515151581526020018515151515815260200180602001848103845289818151815260200191508051906020019080838360005b8381101561047657808201518184015260208101905061045b565b50505050905090810190601f1680156104a35780820380516001836020036101000a031916815260200191505b50848103835288818151815260200191508051906020019080838360005b838110156104dc5780820151818401526020810190506104c1565b50505050905090810190601f1680156105095780820380516001836020036101000a031916815260200191505b50848103825285818151815260200191508051906020019080838360005b83811015610542578082015181840152602081019050610527565b50505050905090810190601f16801561056f5780820380516001836020036101000a031916815260200191505b509a505050505050505050505060405180910390f35b61058d610d7c565b6040518082815260200191505060405180910390f35b6105ab610d82565b6040518082815260200191505060405180910390f35b610603600480360360208110156105d757600080fd5b81019080803573ffffffffffffffffffffffffffffffffffffffff169060200190929190505050610d88565b6040518082815260200191505060405180910390f35b80600160008473ffffffffffffffffffffffffffffffffffffffff1673ffffffffffffffffffffffffffffffffffffffff1681526020019081526020016000206001015401600160008473ffffffffffffffffffffffffffffffffffffffff1673ffffffffffffffffffffffffffffffffffffffff168152602001908152602001600020600101819055505050565b6106b0610dd4565b6040518060e001604052803373ffffffffffffffffffffffffffffffffffffffff1681526020018681526020018581526020018481526020016000151581526020016000151581526020018381525090508060036000600254815260200190815260200160002060008201518160000160006101000a81548173ffffffffffffffffffffffffffffffffffffffff021916908373ffffffffffffffffffffffffffffffffffffffff160217905550602082015181600101556040820151816002019080519060200190610784929190610e2b565b5060608201518160030190805190602001906107a1929190610e2b565b5060808201518160040160006101000a81548160ff02191690831515021790555060a08201518160040160016101000a81548160ff02191690831515021790555060c08201518160050190805190602001906107fe929190610e2b565b5090505060026000815480929190600101919050557fcc483101fbb59597c0bfc36f19482be6ce5fb9c33ac775edf3d28bb5d09919a960405160405180910390a25050505050565b60016020528060005260406000206000915090508060000154908060010154905082565b60018060003373ffffffffffffffffffffffffffffffffffffffff1673ffffffffffffffffffffffffffffffffffffffff1681526020019081526020016000206000015414610921576040517f08c379a000000000000000000000000000000000000000000000000000000000815260040180806020018281038252600e8152602001807f4e6f7420417574686f72697a656400000000000000000000000000000000000081525060200191505060405180910390fd5b8160036000600454815260200190815260200160002060040160006101000a81548160ff021916908315150217905550600160036000600454815260200190815260200160002060040160016101000a81548160ff0219169083151502179055506109c460036000600454815260200190815260200160002060000160009054906101000a900473ffffffffffffffffffffffffffffffffffffffff1682610619565b60046000815480929190600101919050557fbecbed6e17aed9308abebddec8c778736e76e63c61aabd9b38c8d0daccf7912260405160405180910390a25050565b60018060003373ffffffffffffffffffffffffffffffffffffffff1673ffffffffffffffffffffffffffffffffffffffff1681526020019081526020016000206000015414610abc576040517f08c379a000000000000000000000000000000000000000000000000000000000815260040180806020018281038252600e8152602001807f4e6f7420417574686f72697a656400000000000000000000000000000000000081525060200191505060405180910390fd5b610ac4610eab565b6040518060400160405280600081526020016032815250905080600160008473ffffffffffffffffffffffffffffffffffffffff1673ffffffffffffffffffffffffffffffffffffffff16815260200190815260200160002060008201518160000155602082015181600101559050505050565b60036020528060005260406000206000915090508060000160009054906101000a900473ffffffffffffffffffffffffffffffffffffffff1690806001015490806002018054600181600116156101000203166002900480601f016020809104026020016040519081016040528092919081815260200182805460018160011615610100020316600290048015610c105780601f10610be557610100808354040283529160200191610c10565b820191906000526020600020905b815481529060010190602001808311610bf357829003601f168201915b505050505090806003018054600181600116156101000203166002900480601f016020809104026020016040519081016040528092919081815260200182805460018160011615610100020316600290048015610cae5780601f10610c8357610100808354040283529160200191610cae565b820191906000526020600020905b815481529060010190602001808311610c9157829003601f168201915b5050505050908060040160009054906101000a900460ff16908060040160019054906101000a900460ff1690806005018054600181600116156101000203166002900480601f016020809104026020016040519081016040528092919081815260200182805460018160011615610100020316600290048015610d725780601f10610d4757610100808354040283529160200191610d72565b820191906000526020600020905b815481529060010190602001808311610d5557829003601f168201915b5050505050905087565b60045481565b60025481565b6000600160008373ffffffffffffffffffffffffffffffffffffffff1673ffffffffffffffffffffffffffffffffffffffff168152602001908152602001600020600101549050919050565b6040518060e00160405280600073ffffffffffffffffffffffffffffffffffffffff168152602001600081526020016060815260200160608152602001600015158152602001600015158152602001606081525090565b828054600181600116156101000203166002900490600052602060002090601f016020900481019282601f10610e6c57805160ff1916838001178555610e9a565b82800160010185558215610e9a579182015b82811115610e99578251825591602001919060010190610e7e565b5b509050610ea79190610ec5565b5090565b604051806040016040528060008152602001600081525090565b610ee791905b80821115610ee3576000816000905550600101610ecb565b5090565b9056fea265627a7a723158205c34e814f5b297eaaea3ee60eb1022ec7bd108d21290f6e24caddcb91fad533c64736f6c63430005100032",
  "source": "pragma solidity ^0.5.16;\n\n\n\ncontract Wastemanagement {\n    \n     struct User{\n        uint256 auth; //1 high level- Allowed to do transaction,2 - Updates the location to the user, 3- normal user.  \n        int balance;\n    }\n   \n    address internal userAddress;\n    mapping(address => User) public account;\n    \n    function getBalance (address add) public view returns (int) {\n        return account[add].balance;\n    }\n\n   function depositBalance(address add,int val) public{\n        account[add].balance = account[add].balance  + val;\n    }\n\n    function addFirstUser(address add) internal{\n        User memory newuser = User(1,100);\n        account[add] = newuser;\n        \n    }\n    function addNewUser(address add) public{\n        require(account[msg.sender].auth==1,'Not Authorized');\n        User memory user = User(0,50);\n        account[add] = user;\n    } \n    \n    constructor () public{\n        addFirstUser(msg.sender);\n        addNewWasteBag(2,'plastic','20-2-2020','Reached recycling station');\n        addNewWasteBag(3,'metal','20-2-2020','Recycled');\n    }\n    \n    struct Wastebag{\n        address useradd;\n        uint256 weight;\n        string recyType; //glass/metal/plastic/paper/organic\n        string timestamp;\n        bool status; //accepted,rejected\n        bool verified;\n        string location;\n    }\n \n    uint256 public wasteBagId;\n    mapping(uint256 => Wastebag) public wastebags;\n    event NewWasteBag(\n        uint256 indexed wasteBagId\n    );\n\n    function addNewWasteBag(uint256 weight,string memory recyType,string memory timestamp,string memory location) public{\n        Wastebag memory wastebag = \n        Wastebag(\n            msg.sender,\n            weight,\n            recyType,\n            timestamp,\n            false,\n            false,\n            location\n        );\n        wastebags[wasteBagId] = wastebag;\n        emit NewWasteBag(wasteBagId++);\n    }\n    \n    uint256 public lastAuthorized;\n    event newAuthorization(\n        uint256 indexed lastAuthorized\n    );\n\n\n    function authorizeRequest(bool newStatus,int amount) public{\n        require(account[msg.sender].auth==1,'Not Authorized');\n        wastebags[lastAuthorized].status = newStatus;\n        wastebags[lastAuthorized].verified = true;\n        depositBalance(wastebags[lastAuthorized].useradd,amount);\n        emit newAuthorization(lastAuthorized++);\n    }\n\n}\n",
  "sourcePath": "/home/jerry/wastemanagement-app/wastemanagement/contracts/Wastemanagement.sol",
  "compiler": {
    "name": "solc",
    "version": "0.5.16+commit.9c3226ce.Emscripten.clang"
  },
  "schemaVersion": "3.4.1",
  "updatedAt": "2021-06-05T16:08:50.443Z",
  "networkType": "ethereum",
  "devdoc": {
    "methods": {}
  },
  "userdoc": {
    "methods": {}
  }
}